:10000000F8FF002011040000B7190000B719000024
:10001000B7190000B7190000B7190000B7190000A0
:10002000B7190000B7190000B7190000B719000090
:10003000B7190000B7190000B7190000B719000080
:10004000B7190000B7190000B7190000B719000070
:10040000FFFFFFFFFFFFFFFFFFFFFFFFFEFFFFFFFD
:1004100062B604F0BDFFFEE72DE9F843002420009A
:10042000C0B2082808DA0022012114F14000C0B24D
:1004300001F016F9641CF2E700220121492001F0C5
:100440000FF9012201214A2001F00AF901220121BC
:100450004B2001F005F9002201214C2001F000F9A8
:10046000002201214D2001F0FBF84FF4A07149203A
:1004700001F092F94FF4A0714A2001F08DF94FF488
:10048000A0714B2001F088F94FF4A0714C2001F0CD
:1004900083F9DFF8000A00210160012101604FF4B7
:1004A000FA7001F0FDF9DFF8D85901202860DFF873
:1004B000D46900203060DFF8D07900203860DFF8A0
:1004C000CC89112088F80000DFF8C4990020C9F811
:1004D00000000120C9F8000001203860782001F0F8
:1004E000DFF9012028600020306000203860B12052
:1004F00088F800000020C9F800000120C9F80000B9
:100500000120386001202860012030600020386020
:10051000052088F800000020C9F800000120C9F873
:100520000000012038600120286001203060002098
:1005300038603A2088F800000020C9F80000012047
:10054000C9F80000012038600120286001203060D7
:10055000002038603A2088F800000020C9F8000028
:100560000120C9F800000120386001202860002027
:10057000306000203860B22088F800000020C9F800
:1005800000000120C9F80000012038600120286027
:100590000120306000203860052088F8000000202D
:1005A000C9F800000120C9F80000012038600120CE
:1005B000286001203060002038603A2088F8000070
:1005C0000020C9F800000120C9F8000001203860AF
:1005D0000120286001203060002038603A2088F82F
:1005E00000000020C9F800000120C9F80000012027
:1005F0003860012028600020306000203860B3207F
:1006000088F800000020C9F800000120C9F80000A7
:10061000012038600120286001203060002038600F
:10062000052088F800000020C9F800000120C9F862
:100630000000012038600120286001203060002087
:1006400038603A2088F800000020C9F80000012036
:10065000C9F80000012038600120286001203060C6
:10066000002038603A2088F800000020C9F8000017
:100670000120C9F800000120386001202860012015
:10068000306000203860052088F800000020C9F89C
:1006900000000120C9F80000012038600120286016
:1006A00001203060002038603A2088F800000020E7
:1006B000C9F800000120C9F80000012038600120BD
:1006C000286001203060002038603A2088F800005F
:1006D0000020C9F800000120C9F80000012038609E
:1006E000012028600020306000203860B42088F8A5
:1006F00000000020C9F800000120C9F80000012016
:100700003860012028600120306000203860072018
:1007100088F800000020C9F800000120C9F8000096
:1007200001203860012028600020306000203860FF
:10073000C02088F800000020C9F800000120C9F896
:100740000000012038600120286001203060002076
:100750003860282088F800000020C9F80000012037
:10076000C9F80000012038600120286001203060B5
:1007700000203860082088F800000020C9F8000038
:100780000120C9F800000120386001202860012004
:10079000306000203860842088F800000020C9F80C
:1007A00000000120C9F80000012038600120286005
:1007B0000020306000203860C12088F80000002050
:1007C000C9F800000120C9F80000012038600120AC
:1007D00028600120306000203860C02088F80000C8
:1007E0000020C9F800000120C9F80000012038608D
:1007F000012028600020306000203860C22088F886
:1008000000000020C9F800000120C9F80000012004
:1008100038600120286001203060002038600C2002
:1008200088F800000020C9F800000120C9F8000085
:1008300001203860012028600120306000203860ED
:10084000002088F800000020C9F800000120C9F845
:100850000000012038600120286000203060002066
:100860003860C32088F800000020C9F8000001208B
:10087000C9F80000012038600120286001203060A4
:10088000002038608C2088F800000020C9F80000A3
:100890000120C9F8000001203860012028600120F3
:1008A0003060002038602A2088F800000020C9F855
:1008B00000000120C9F800000120386001202860F4
:1008C0000020306000203860C42088F8000000203C
:1008D000C9F800000120C9F800000120386001209B
:1008E000286001203060002038608A2088F80000ED
:1008F0000020C9F800000120C9F80000012038607C
:10090000012028600120306000203860EE2088F847
:1009100000000020C9F800000120C9F800000120F3
:100920003860012028600020306000203860C52039
:1009300088F800000020C9F800000120C9F8000074
:1009400001203860012028600120306000203860DC
:100950000C2088F800000020C9F800000120C9F828
:100960000000012038600120286000203060002055
:100970003860E02088F800000020C9F8000001205D
:10098000C9F8000001203860012028600120306093
:1009900000203860052088F800000020C9F8000019
:1009A0000120C9F8000001203860012028600120E2
:1009B0003060002038601A2088F800000020C9F854
:1009C00000000120C9F800000120386001202860E3
:1009D00001203060002038600C2088F800000020E2
:1009E000C9F800000120C9F800000120386001208A
:1009F000286001203060002038600E2088F8000058
:100A00000020C9F800000120C9F80000012038606A
:100A10000120286001203060002038603A2088F8EA
:100A200000000020C9F800000120C9F800000120E2
:100A300038600120286001203060002038603420B8
:100A400088F800000020C9F800000120C9F8000063
:100A500001203860012028600120306000203860CB
:100A60002D2088F800000020C9F800000120C9F8F6
:100A70000000012038600120286001203060002043
:100A800038602F2088F800000020C9F800000120FD
:100A9000C9F8000001203860012028600120306082
:100AA000002038602D2088F800000020C9F80000E0
:100AB0000120C9F8000001203860012028600120D1
:100AC0003060002038602A2088F800000020C9F833
:100AD00000000120C9F800000120386001202860D2
:100AE00001203060002038602F2088F800000020AE
:100AF000C9F800000120C9F8000001203860012079
:100B0000286001203060002038603C2088F8000018
:100B10000020C9F800000120C9F800000120386059
:100B2000012028600120306000203860002088F813
:100B300000000020C9F800000120C9F800000120D1
:100B400038600120286001203060002038600120DA
:100B500088F800000020C9F800000120C9F8000052
:100B600001203860012028600120306000203860BA
:100B7000022088F800000020C9F800000120C9F810
:100B80000000012038600120286001203060002032
:100B90003860102088F800000020C9F8000001200B
:100BA000C9F8000001203860012028600020306072
:100BB00000203860E12088F800000020C9F800001B
:100BC0000120C9F8000001203860012028600120C0
:100BD000306000203860042088F800000020C9F848
:100BE00000000120C9F800000120386001202860C1
:100BF00001203060002038601B2088F800000020B1
:100C0000C9F800000120C9F8000001203860012067
:100C1000286001203060002038600D2088F8000036
:100C20000020C9F800000120C9F800000120386048
:100C30000120286001203060002038600E2088F8F4
:100C400000000020C9F800000120C9F800000120C0
:100C500038600120286001203060002038602D209D
:100C600088F800000020C9F800000120C9F8000041
:100C700001203860012028600120306000203860A9
:100C8000292088F800000020C9F800000120C9F8D8
:100C90000000012038600120286001203060002021
:100CA0003860242088F800000020C9F800000120E6
:100CB000C9F8000001203860012028600120306060
:100CC00000203860292088F800000020C9F80000C2
:100CD0000120C9F8000001203860012028600120AF
:100CE000306000203860282088F800000020C9F813
:100CF00000000120C9F800000120386001202860B0
:100D00000120306000203860262088F80000002094
:100D1000C9F800000120C9F8000001203860012056
:100D200028600120306000203860312088F8000001
:100D30000020C9F800000120C9F800000120386037
:100D40000120286001203060002038603B2088F8B6
:100D500000000020C9F800000120C9F800000120AF
:100D600038600120286001203060002038600020B9
:100D700088F800000020C9F800000120C9F8000030
:100D80000120386001202860012030600020386098
:100D9000002088F800000020C9F800000120C9F8F0
:100DA0000000012038600120286001203060002010
:100DB0003860032088F800000020C9F800000120F6
:100DC000C9F800000120386001202860012030604F
:100DD00000203860122088F800000020C9F80000C8
:100DE0000120C9F80000012038600120286000209F
:100DF0003060002038603A2088F800000020C9F8F0
:100E000000000120C9F8000001203860012028609E
:100E10000120306000203860052088F800000020A4
:100E2000C9F800000120C9F8000001203860012045
:100E300028600020306000203860292088F80000F9
:100E40000020C9F800000120C9F800000120386026
:100E50000120286000203060002038602C2088F8B5
:100E600000000020C9F800000120C9F8000001209E
:100E70003860DFF8C807007800F00EF8BDE8F183AD
:100E80002810FE433010FE432C10FE4380F00F402C
:100E90002410FE433410FE4370B504002000C0B29D
:100EA000042804DBC821DFF8980700F019FDDFF8FB
:100EB0008C0704702000C0B2002808D0022800F07F
:100EC0007C81C0F0BF80032800F03082E2E2DFF8CE
:100ED000740701210160DFF8701700220A60DFF853
:100EE0006C2700231360DFF8683736251D70DFF8A4
:100EF000645700262E6001262E600126166001260A
:100F0000066001260E6000261660C8261E700026A8
:100F10002E6001262E60012616600126066000263E
:100F20000E60002616602A261E7000262E600126FE
:100F30002E60012616600126066001260E6000263E
:100F4000166000261E7000262E6001262E600126E7
:100F500016600126066001260E6000261660022635
:100F60001E7000262E6001262E60012616600126C6
:100F7000066001260E600026166000261E70002600
:100F80002E6001262E6001261660012606600126CD
:100F90000E600026166081261E7000262E60012637
:100FA0002E60012616600126066000260E600026CF
:100FB00016602B261E7000262E6001262E6001264C
:100FC00016600126066001260E60002616600026C7
:100FD0001E7000262E6001262E6001261660012656
:100FE000066001260E600026166003261E7000268D
:100FF0002E6001262E60012616600126066001265D
:101000000E600026166000261E7000262E60012647
:101010002E6001261660012606600120086000206F
:1010200010608220187000202860012028600120B4
:1010300010608020DFF8201608808020DFF81C1662
:10104000088027E2DFF8FC0501210160DFF8F815D0
:1010500000220A60DFF8F42500231360DFF8F03582
:1010600036251D70DFF8EC5500262E6001262E6017
:10107000012616600126066001260E600026166015
:10108000A8261E7000262E6001262E6001261660FE
:101090000126066000260E60002616602A261E70B5
:1010A00000262E6001262E600126166001260660AD
:1010B00001260E600026166000261E7000262E6097
:1010C00001262E60012616600126066001260E60AC
:1010D0000026166003261E7000262E6001262E6054
:1010E000012616600126066001260E6000261660A5
:1010F00000261E7000262E6001262E600126166036
:101100000126066001260E600026166082261E70EB
:1011100000262E6001262E6001261660012606603C
:1011200000260E60002616602B261E7000262E60FC
:1011300001262E60012616600126066001260E603B
:101140000026166000261E7000262E6001262E60E6
:10115000012616600126066001260E600026166034
:1011600002261E7000262E6001262E6001261660C3
:101170000126066001260E600026166000261E70FD
:1011800000262E6001262E600126166001260660CC
:101190000120086000201060812018700020286065
:1011A00001202860012010608020DFF8AC14088046
:1011B0008020DFF8A81408806CE1DFF888040121A2
:1011C0000160DFF8841400220A60DFF88024002325
:1011D0001360DFF87C3436251D70DFF87854002664
:1011E0002E6001262E60012616600126066001266B
:1011F0000E600026166008261E7000262E6001264E
:101200002E60012616600126066000260E6000266C
:1012100016602A261E7000262E6001262E600126EA
:1012200016600126066001260E6000261660002664
:101230001E7000262E6001262E60012616600126F3
:10124000066001260E600026166002261E7000262B
:101250002E6001262E6001261660012606600126FA
:101260000E600026166000261E7000262E600126E5
:101270002E60012616600126066001260E600026FB
:10128000166081261E7000262E6001262E60012623
:1012900016600126066000260E60002616602B26CA
:1012A0001E7000262E6001262E6001261660012683
:1012B000066001260E600026166000261E700026BD
:1012C0002E6001262E60012616600126066001268A
:1012D0000E600026166003261E7000262E60012672
:1012E0002E60012616600126066001260E6000268B
:1012F000166000261E7000262E6001262E60012634
:10130000166001260660012008600020106082201F
:1013100018700020286001202860012010608020C3
:10132000CD4908808020CD490880B3E0C54801211F
:101330000160C54900220A60C44A00231360C44BFF
:1013400036251D70C34D00262E6001262E60012615
:1013500016600126066001260E60002616606826CB
:101360001E7000262E6001262E60012616600126C2
:10137000066000260E60002616602A261E700026D3
:101380002E6001262E6001261660012606600126C9
:101390000E600026166000261E7000262E600126B4
:1013A0002E60012616600126066001260E600026CA
:1013B000166003261E7000262E6001262E60012670
:1013C00016600126066001260E60002616600026C3
:1013D0001E7000262E6001262E6001261660012652
:1013E000066001260E600026166082261E7000260A
:1013F0002E6001262E60012616600126066000265A
:101400000E60002616602B261E7000262E60012618
:101410002E60012616600126066001260E60002659
:10142000166000261E7000262E6001262E60012602
:1014300016600126066001260E6000261660022650
:101440001E7000262E6001262E60012616600126E1
:10145000066001260E600026166000261E7000261B
:101460002E6001262E6001261660012606600120EE
:101470000860002010608120187000202860012082
:101480002860012010608020734908808020734903
:101490000880FFE770BD73B468480078C0070AD5BC
:1014A000BDF80000C01CADF80000BDF80200801CB3
:1014B000ADF8020009E0BDF80000801CADF80000A6
:1014C000BDF80200C01CADF802005E4901200860B2
:1014D0005D4A002010605D4B002018605C4C2A20A3
:1014E00020705C4D002028600120286001201860D9
:1014F000012008600120106000201860BDF8000085
:1015000080B2000A2070002028600120286001209D
:101510001860012008600120106000201860BDF8EC
:101520000000207000202860012028600120186041
:10153000012008600120106000201860BDF8000044
:10154000BDF8046016FA80F0401E001220700020E2
:101550002860012028600120186001200860012017
:10156000106000201860BDF80060BDF80400861906
:10157000701E207000202860012028600120186063
:101580000120086000201060002018602B202070CF
:1015900000202860012028600120186001200860D8
:1015A0000120106000201860BDF8020080B2000A1F
:1015B0002070002028600120286001201860012090
:1015C00008600120106000201860BDF80200207043
:1015D0000020286001202860012018600120086098
:1015E0000120106000201860BDF80200BDF8066000
:1015F00016FA80F0401E00122070002028600120A2
:10160000286001201860012008600120106000207F
:101610001860BDF80210BDF806004118481E207081
:1016200000202860012028600120186073BC7047EA
:10163000094800887047094800887047F619FF1F5D
:10164000DC5400002810FE433010FE432C10FE43F3
:1016500080F00F402410FE439C0CFF1F9E0CFF1FC8
:10166000F8B504000D0016004FF480712000C0B2E0
:1016700000F092F8280040B2002812D1444821001E
:10168000C9B2491150F821102200D2B2521150F8BB
:1016900022004269012314F01F0083409A434A61EB
:1016A00038E001213A4A2000C0B2401152F820002F
:1016B0002300DBB25B1152F823305B6914F01F0783
:1016C00011FA07F73B4343613000C0B2002811D143
:1016D0002000C0B2401152F82000036814F01F002F
:1016E000814033EA01012000C0B2401152F82000CD
:1016F00001600FE02000C0B2401152F820000368E2
:1017000014F01F00814019432000C0B2401152F86C
:1017100020000160F1BD38B504001D4D2000C0B2AD
:10172000401155F82000406914F01F01C840C0075F
:1017300003D47B21174800F0D3F82000C0B2401139
:1017400055F82010012214F01F008240CA6031BDFC
:1017500038B504000E4D2000C0B2401155F82000ED
:10176000406914F01F01C840C00703D58C21094807
:1017700000F0B6F82000C0B2401155F82000006912
:1017800014F01F04E04010F0010032BD0000000022
:10179000240BFF1FE855000030B42B4B1C684FF49E
:1017A00000750200D2B2520995402C431C60274BB1
:1017B0000200D2B2521153F82240012510F01F024C
:1017C0009540C4F8A0500200D2B2521153F8222022
:1017D0000300DBB213F01F0342F8231030BC704744
:1017E00030B4194B1C684FF400750200D2B2520994
:1017F00095402C431C60154B0200D2B2521153F895
:101800002240012510F01F029540C4F8A05031F489
:10181000E0610200D2B2521153F822200400E4B277
:1018200014F01F0452F8242012F4E0621143020065
:10183000D2B2521153F822200300DBB213F01F037F
:1018400042F8231030BC704738800440800BFF1FE3
:1018500030B40F490A6852F080720A600D490A6874
:1018600052F001020A600C4A13680C4909684FF4EF
:101870007A7491FBF4F404FB00F4E118994202D26B
:101880001568A942FCD315688D42FCD330BC704763
:10189000FCED00E0001000E0041000E09019FF1FD4
:1018A00010B504002000441E002804D04FF47A70C4
:1018B000FFF7CEFFF6E710BDDFF800F0C90CFF1F01
:1018C000DFF800F0EB0CFF1FBFF34F8F46490A68AB
:1018D00012F4E062454802430A60BFF34F8FFEE70F
:1018E00038B504000D00002000F08EF82A00210019
:1018F0003F4800F0B5F8002000F0A6F84FF47A70E9
:10190000FFF7CEFFF2E738B504000D00210049B221
:10191000042000F0B3F9200032BD10B500240420EB
:1019200000F0DAF9042000F011FA002842D100207A
:1019300000F06AF8042000F009FA012801D1012022
:101940000400002000F080F82A4800F089F84FF4E5
:10195000FA70FFF7A5FF2000C0B20128EAD10420E9
:1019600000F0F4F90028E5D1042000F0EFF9002898
:1019700006D1002000F068F86420FFF791FFF3E73C
:10198000042000F0E3F9012806D1002000F05CF803
:101990003220FFF785FFF3E7174800F061F8FFF703
:1019A0008BFF6420FFF77CFF0020FFF789FFFFF724
:1019B0008BFFBFE710BD10B510480468012000F090
:1019C00023F8012000F040F80D492200D2B20F2088
:1019D00042430A442100C9B20A4800F041F84FF4DA
:1019E0007A70FFF75DFFECE70CED00E00400FA050C
:1019F000085700004C5800008457000004ED00E038
:101A00001004FF1FA456000010B50400200040B2CF
:101A1000042808DA01220121104823005BB2C05CCF
:101A2000FFF71EFE0FE0042004002000441E40B219
:101A3000002808D001220121084823005BB2C05CC5
:101A4000FFF70EFEF1E710BD10B5040003482100BA
:101A500049B2405CFFF75FFE10BD0000B40BFF1FF2
:101A60000EB4C0B5024603A800210190009101AB5D
:101A70000121044878440C3000F080F906BC5DF880
:101A800010FB00BFA53D00002DE9F84304000D0048
:101A9000200040B2002808D0022828D016D30428FD
:101AA00047D035D3052855D065E0DFF8140201682A
:101AB00051F4806101604FF440716620FFF76CFEC5
:101AC0004FF440716720FFF767FE54E0DFF8F00144
:101AD000016851F4006101604FF440714320FFF749
:101AE0005BFE4FF440714420FFF756FE43E0DFF801
:101AF000D001016851F4805101604FF440716320BE
:101B0000FFF74AFE4FF440716220FFF745FE32E0D6
:101B1000DFF8AC01016851F4005101604FF44071ED
:101B20005020FFF739FE4FF440715120FFF734FE8B
:101B300021E0DFF89001016851F4806101604FF409
:101B400040714E20FFF728FE4FF440714F20FFF701
:101B500023FE10E0DFF86C01016851F400610160C0
:101B60004FF440718920FFF717FE4FF44071882031
:101B7000FFF712FEFFE7DFF85061200040B256F891
:101B80002000C07810F0F300210049B256F821106F
:101B9000C870200040B256F820008078210049B279
:101BA00056F821108870200040B2002803D0200091
:101BB00040B2012805D1454807684FF47A70474381
:101BC00004E0434807684FF47A7047432801B7FBA5
:101BD000F0F8404680B2B0F5005F02DB41F6FF70DE
:101BE0008046B7FBF5F9404680B2B9EB001948468C
:101BF00080B2202804DB40F203113648FFF770FE64
:101C0000200040B256F82000007810F0E000C8F341
:101C100004210143220052B256F822201170210003
:101C200049B256F8211081F80180210049B256F8D6
:101C30002110897A11F0E00119F01F020A432300F4
:101C40005BB256F823309A72220052B256F8222024
:101C5000127C52F0880223005BB256F823301A74CB
:101C6000220052B256F82220D27852F00C02230001
:101C70005BB256F82330DA70BDE8F183124A0300F4
:101C80005BB252F823301B791B06F7D503005BB219
:101C900052F82320D171704770B504000D00160072
:101CA0003000461E002809D095F90000010049B215
:101CB000200040B2FFF7E2FF6D1CF1E770BD0000AD
:101CC0003480044028800440940BFF1F9019FF1FAC
:101CD0009819FF1F2856000038B50400200040B2B4
:101CE00008280EDA244D00220021200040B2285C92
:101CF000FFF7B6FC0321200040B2285CFFF770FD1F
:101D000015E0082004002000441E40B200280ED038
:101D1000194D00220021200040B2285CFFF7A0FCF2
:101D20000321200040B2285CFFF75AFDEBE731BDEC
:101D300010B504001048210049B2405CFFF708FDCF
:101D4000002801D1002000E0012010BD10B50400E2
:101D5000200040B2FFF7ECFF00280AD10A20FFF76D
:101D60009FFD200040B2FFF7E3FF002801D10020D3
:101D700000E0012010BD0000AC0BFF1F2DE9F04377
:101D80009FB00FF6A836269CDFF804898DF83B40FB
:101D9000029100240B944FF0FF37044691461D46F4
:101DA0000AE019F8011B0298A0470028029000F0F1
:101DB000A1800B98401C0B9099F8000050B1252889
:101DC000EFD1002100220591069207910892099116
:101DD0000A9203E00B98A0E041F0010119F8010F0D
:101DE0002028F9D023280CD02B2804D02D2805D06A
:101DF000302809D080E041F00201EFE741F0040112
:101E0000ECE741F00801E9E741F01001E6E70D9247
:101E10000AE00D98404505DA00EB800002EB400235
:101E2000303A0D9209F1010999F80020A2F1300031
:101E30000A28EED399F800002E2818BF0C9726D157
:101E400019F8010F2A2808D12868286009F101092A
:101E500050F8042B28600C9219E02D280CBF09F1D2
:101E60000109002000220C920BE040B90C9A424577
:101E700005DA02EB820203EB4203303B0C9309F1DB
:101E8000010999F80030A3F130020A2AEDD3ADF828
:101E90003810304699F8001000F098FD08B119F894
:101EA000010B8DF83A009DF83A00682805D199F8A1
:101EB000000068280CD1622106E06C2804BF99F864
:101EC00000006C2804D171218DF83A1009F1010944
:101ED00010A804902A4619F8013B6946204600F0F4
:101EE0005CF838B910AA6946204600F086F9002847
:101EF0007FF562AF384610E02A2888D12A682A6028
:101F000052F8040B2A6000280D9003D540420D9032
:101F100041F0040109F101098CE71FB0BDE8F0832D
:101F2000622820D0682811D06A2803D06C2827D0D6
:101F3000712825D10868C01D20F007000860D0E98D
:101F4000002308300860194610467047002A0A68C6
:101F50000A60106803D0121D0A6000B217E0121D5B
:101F60000A6080B217E0002A0A680A60106803D08D
:101F7000121D0A6040B20AE0121D0A60C0B20AE0F7
:101F8000002A0A680A60106803D0121D0A60C1178F
:101F90007047121D0A600021704770B51C460D463F
:101FA000B4F125002E69114600F015812038022871
:101FB00063D9133840D00B3816D0401E1ED0401EB7
:101FC00002285AD9001F19D0401F00F08180401EFE
:101FD00032D0401E00F0CB80C01E00F0DA80801EA0
:101FE0002AD0C01E28D0FCE06869421C6A610A68D9
:101FF0000A6052F8043B0A603354FCE095F83A005A
:102000000122FFF78DFFC5E90001002904D56869A9
:10201000411C69612D220DE0288F810704D5686974
:10202000411C69612B2205E0C00721D56869411C6C
:102030006961202232541BE095F83A000022FFF734
:102040006FFFC5E9000195F83800010710D5D5E903
:102050000023002B08BF002A0AD044F02000782873
:1020600006D1686930213154401C421C6A613454E5
:10207000214668693044E86087E00868C01D20F0A8
:1020800007000860D0E9002308300860C5E9002394
:10209000D5E90001C80F04D06869411C69612D228F
:1020A0000DE0288F810704D56869411C69612B22E6
:1020B00005E0C00704D56869411C696120223254DB
:1020C00068693044E8602146284600F0C4F992E08F
:1020D00005F13A02507820B14FF0FF340FF654006A
:1020E00062E01078622808D0682824D06A2812D0CC
:1020F0006C282ED071280ED02BE00A680A6052F8A6
:10210000040B0A6020B94FF0FF340FF640004BE09B
:10211000E96A01706FE00A680A6052F8040B0A600D
:1021200020B94FF0FF340FF624003DE0EA6AD317E0
:10213000C0E900235FE00A680A6052F8040B0A60F5
:1021400020B94FF0FF340FF604002DE0E96A01805A
:1021500051E00A680A6052F8040B0A6020B94FF097
:10216000FF340FF2E8701FE0E96A016043E00A689B
:102170000A6052F8040B0A60002120F0000221F0EE
:10218000FF33C5E90023EE607821284600F0BBF854
:1021900031E00868086050F8044B0860EC603CB916
:1021A0004FF0FF340FF2BC7000F01CFC201A70BD21
:1021B0002E6B002E04D5204600F034FC044608E0C7
:1021C00032460021204600F049FC002814BF041BC1
:1021D0003446AC610FE06869411C696125223254C4
:1021E00009E06969481C686125227254210002D007
:1021F000431C6B613454002070BD2DE9FC410F4637
:10220000064690467A6B7869396ABC6A121AB869D0
:10221000521A796A121AF869521A121A97F8380083
:10222000141B41070FD42020002C8DF800000ADD7C
:10223000254601236A463946304600F05FFB0028F8
:102240005DD16D1EF5D17B6942463946304600F0BE
:1022500055FB002853D130208DF800003D6A002D39
:1022600009DD01236A463946304600F047FB002865
:1022700045D16D1EF5D1BB69FA683946304600F08C
:102280003DFB00283BD130208DF800007D6A002DF9
:1022900008DD01236A463946304600F02FFB70BB4B
:1022A0006D1EF6D1F868B969FB69421839463046A7
:1022B00000F024FB18BB30208DF80000BD6A002D13
:1022C00008DD01236A463946304600F017FBB0B9F5
:1022D0006D1EF6D197F8380041070DD52020002C4F
:1022E0008DF8000008DD01236A463946304600F0CB
:1022F00005FB20B9641EF6D10020BDE8F6814FF041
:10230000FF30BDE8F6812DE9FC4307466F293E69A1
:1023100008BF082405D041F02000782814BF0A2403
:1023200010243C25D7E90023642918BF6929904669
:10233000994605D1002B03D5D8F1000869EB49096E
:10234000B9F1000F08BFB8F1000F1FD1386BE8B921
:10235000082C4CD197F83800010748D530203B2590
:1023600086F83B0043E000280ED597F8380000F0CF
:102370001400102808D17B6B7969386A5B1A1B1A24
:102380009A1A002AC8BF3A62BDE8F3838DF800109C
:10239000404649462246E31700F08CFB3032D0B26B
:1023A0006D1E3A28019504DB9DF80000A0F1510153
:1023B0008A187255404649462246E31700F07AFBD8
:1023C00080465FEA010908BFB8F1000F03D0F86842
:1023D00071198842DCD3082C09D197F8380001071D
:1023E00005D5705D302802D06D1E30207055C5F1C6
:1023F0003C02BA617119F960386B8242B3DA821A11
:102400003A624FF6EF70398F01403987BDE8F383A8
:102410002DE9D04306460F4614464FF00008DFF87A
:10242000749212E0E00707D542464B4630463946E3
:1024300000F058FC06460F464046494642464B4689
:1024400000F050FC641080468946002CEAD13046EA
:102450003946BDE8D0832DE9F047064689468EB05F
:10246000D6E90001CDE9020104AC306B002802D5A9
:102470000620306305E001BF49F0200067280121F4
:102480003163D6E9002358004015401C0DD11903D3
:102490000BD0A9F1610103201A29B06102D20FF219
:1024A000E04110E00FF2DC410DE059004915491CF4
:1024B0000ED118030CD1A9F1610103201A29B061D2
:1024C00016D30FF2C841F068032200F0DDFCDBE018
:1024D00023F00047B7F5801F1046194622F000058B
:1024E0000DD20022002F08BF002D019203D116E06B
:1024F0000FF29441E7E701AA00F01AFD08E06648F0
:10250000664900EB17500190654803401046194397
:10251000019B644D47F29752534393FBF5F2C6E992
:10252000000120F0000331F0004104BF002B002324
:1025300000F0A280DDE90240019220F00045D2F1D6
:10254000070204DD20462946FFF762FF0AE05242F7
:1025500000205549FFF75CFF02460B4620462946FE
:1025600000F01EFD044649F0200ABAF1660F306BF8
:1025700006BF019D0A3506252D18142DC8BF142548
:10258000302088468DF810000DF11107002D33DD45
:102590002046414600F028FE01460A4607F108039E
:1025A00004200A27B2FBF7F707EB870EA2EB4E02D7
:1025B000303203F8012C0A22B7FBF2F202EB820E52
:1025C000A7EB4E073037401E03F8027DE9D1083DE6
:1025D000002D03F10807D9DD084600F019FE024678
:1025E0000B462046414600F021FE00222F4B00F012
:1025F00079FB04468846CBE70DF111003F1A0DF137
:10260000110404E00198401E7F1E0190641C207894
:102610003028F7D0BAF1660F02D10198401C04E0CF
:10262000BAF1650F0CBF01200020336BC3189F4225
:10263000B8BF7B1E002B1ED4BB4204DAE05C3528F9
:10264000A8BF392000DA30201946621E02EB0108CB
:1026500000E05B1E18F80179491E8742F9D039283D
:1026600002D1605C401C6054002904D50198401CD4
:1026700014465B1C0190019800B200901BB22246E8
:102680004946304600F014F80EB0BDE8F08700006F
:10269000CBCCCC0C0000244002FCFFFF0000E03F4C
:1026A000FFFF0F80A08601000000F03F84D7974114
:1026B0002DE9F84783B005468A469146984600F0D2
:1026C00027FEB8F1000F406A2F6B067803DC4FF04D
:1026D00001080FF2BC294AF02000BDF930406628FD
:1026E00008BF641C13D0672840F08F8014F1040FDA
:1026F0007ADBBC4278DA95F83800641C010702D412
:10270000B845B8BF474620B23F1A48BF00270FFA66
:1027100084FAE868A969BAF1000F23DC4A1C302367
:102720004354002F03DC95F83800010702D5E86810
:102730008654521C17EB0A0FB8BF7C4224B2E7192B
:1027400060424745B8BFB846AA6168620FFA88F48C
:10275000EC61E868AB6922464946184400F094FBF6
:102760003F1B18E022B29045084416DA424649461B
:1027700000F08AFBA8694044A861AAEB0801002F79
:10278000696203DC95F838100A0704D5E9680E542D
:10279000E869401CE861AF6299E0494600F074FBCB
:1027A000A869002F5044A8EB040803DC95F8381002
:1027B0000A0702D5E9680E54401CA8610FFA88F098
:1027C0008742EB68A869B8BFB8460FFA88F209EBF0
:1027D0000A01184400F058FBA9690FFA88F0014477
:1027E000A961381A686272E0B84504DA95F83810C1
:1027F0000A0758BF47467F1E48BF0027BAF1670F38
:102800000CBF4FF0650A4FF0450AA969EB68481CF8
:10281000A861002F19F8012B5A5403DC95F83810E1
:102820000A0719D5E968431CAB610E54002F13DD6C
:10283000A8F1010630B28742D5F80CC0B8BF3E46B9
:1028400032B249460CEB030000F01EFBA86936B219
:102850003018BF1BA8616F62E868A9690844002CA2
:1028600080F800A003D42B224270811C03E02D21AC
:1028700041706442811C00206A460AE023460A2413
:1028800093FBF4F404EB8406A3EB460302F8013B4C
:10289000401C24B2002CF1DC012806DC4AF02002A6
:1028A000652A04BF302201F8012B48B9302001F815
:1028B000010B07E0401E1DF80030303301F8013BEA
:1028C0000028F7DCEA68A8691044091AE96195F85C
:1028D000380000F0140010280DD16A69A969686AEF
:1028E0008A18E9698218A86A8A188218686B824275
:1028F000BCBF821A2A6204B0BDE8F087F8B505466D
:102900000E4617461C46002074B117F8011BB0682C
:10291000A847B06030B1F06A401CF0620020641E2D
:10292000F3D1F2BD4FF0FF30F2BD0000686A6C7465
:102930007A4C00007072696E74665F733A20256E7F
:1029400020646973616C6C6F776564007072696E86
:1029500074663A2062616420256E20617267756D2D
:10296000656E74007072696E74665F733A2062619E
:102970006420257320617267756D656E74000000B8
:102980006E616E004E414E00696E6600494E460013
:10299000300030B4002513E050F8042BD30744BFB7
:1029A000A9F101039A18091F042942F8045BFAD21D
:1029B00013468C0744BF15809B1CC90748BF1D7078
:1029C00050F8041B0029E7D130BC7047C9B2027827
:1029D0008A421AB11CBF10F8012FF9E718BF002076
:1029E000704701FE80B500B906A005490B681BB110
:1029F00022220021984701E000F08EFC222002BD37
:102A0000A019FF1F636F6E73747261696E74206822
:102A1000616E646C65723A20626164206D657373E7
:102A20006167650000F10103810704D010F8011B04
:102A3000820781B1FAD10268A2F10131914311F00C
:102A4000803104BF50F8042FF6E709BAB1FA81F1DA
:102A500000EBD100401CC01A7047FE01C9B28307C9
:102A600006D0521E22D310F8013B9942F7D11FE045
:102A7000083A13D302F1040241EA012141EA01417B
:102A800050F8043B121F21BF4B40A3F1013C2CEA3C
:102A9000030C1CF0803FF3D0C9B2001F083210F8BD
:102AA000013B521E28BF91EA030FF8D818BF01203E
:102AB000401E7047BBBBE1B1B2F5803F80F07E8025
:102AC000022A1ED98C46B1FBF2F102FB11C31B0492
:102AD00043EA1043B3FBF2FC02FB1C3380B240EA32
:102AE0000343B3FBF2F002FB103240EA0C40002338
:102AF0007047022A05D98446B0FBF2F002FB10C2EF
:102B000070474AB105D100F0010249085FEA300080
:102B1000704700220023704700F002BC0B00020047
:102B2000002100207047904271EB030CF6D3B3F5FF
:102B3000803F2FD2F0B5B3FA83F7B1FA81F4A7F151
:102B40000F0E3D1B5340CEF1200602FA0EF2F34168
:102B50005340B5F10F0746D80F3C2C444140C4F117
:102B60002006A040F1414140B1FBF3F603FB1611F2
:102B7000A2FB0645001BA94102D2761E80185941CE
:102B800080EA010221FA0EF362FA0EF200215A40A5
:102B90003046F0BD30B4B1FBF3FC03FB1C11A2FBCB
:102BA0000C45001BA94103D2ACF1010C801859411E
:102BB00030BC02460B46604600217047B2F1807F70
:102BC00065D3F0B5B2FA82F7B1FA81F4C7F10F0616
:102BD0003D1B22FA06F307F1110EF24120355A404F
:102BE000B5F10F07B8D94140C4F12006A040F1412A
:102BF0004140B1FBF3FC03FB1C11A2FB0C45001B85
:102C0000A94103D2BCF1010C801859410F2F12D3F6
:102C10000F3FC90341EA5041B1FBF3F603FB161124
:102C2000A2FB0645D4EBC030A94102D2761E801823
:102C3000594146EACC3C07B34140C7F12006B840B1
:102C4000F1414140B1FBF3F603FB1611A2FB06452F
:102C5000001BA94102D2761E8018594180EA010268
:102C600021FA0EF3C7F1200462FA0EF20CFA07F013
:102C70005A402CFA04F13043F0BD80EA010221FAF7
:102C80000EF3002162FA0EF260465A40F0BD8C4607
:102C9000B1FBF2F102FB11C31B0243EA1063B3FB69
:102CA000F2FC02FB1C331B024CEA002043EA1063D7
:102CB000B3FBF2FC02FB1C331B024CEA002043EA8C
:102CC0001063B3FBF2FC02FB1C331B024CEA002036
:102CD00043EA1063B3FBF2FC02FB1C324CEA002017
:102CE00000237047B0B581EA030C0CF0004C40F2B1
:102CF000FF7515EA11541DBF15EA1357AC42AF42D8
:102D000039E0E41923EA455343F48013C90241F042
:102D1000004141EA505EC7021100A7FB02020028F1
:102D20004FF00000EEFB01204FF00001E3FB072114
:102D300018BF42F00102401800214941E3FB0E0197
:102D4000A4F580640F0302D252004041494154F17E
:102D500001046CDD470872F1004250F1000051EBB4
:102D60000451A1F580115CBF41EA0C01B0BD4CEAF1
:102D700005510020B0BD05EA1357AC4214BFAF4265
:102D800041E050EA410E1CBF52EA430E02E06146A8
:102D90000020B0BD24423C441BD15FEA070EF6D0B0
:102DA000090302BF01460020AEF1140EB1FA81F70B
:102DB000AEEB070401FA07FE0C37C7F1200100FA59
:102DC00007F7C8404EEA000E23EA455343F4801348
:102DD000A2E733F00043B3FA83F704BFB2FA82FEEE
:102DE00077440B3FE41BB7F1200E2FBF02FA0EF31E
:102DF000BB40C7F1200E22FA0EFE38BF43EA0E0395
:102E0000BA40641C82E750EA410E14BF52EA430EF6
:102E10006FF000014FF4001717EB430F8ABF1946FC
:102E200017EB410FB5E74CEA05510020B0BDD4F1D6
:102E30000104B4F120070FDAC4F12007520828BFBB
:102E400042F0010210FA07F501FA07F7E1BF2A4341
:102E5000E0403843E1400FE0352C98DCC7F1200416
:102E600052EA400220FA07F218BF42F0010231FA9A
:102E700007F0A1400A43002172F1004250F1000026
:102E800051EB0C01B0BD000062B38B0708D0521E9D
:102E900011F8013B00F8013B00F024808B07F6D1CC
:102EA000830740F0208000BF103A07D330B4B1E868
:102EB0003810103AA0E83810F9D230BC530724BFBC
:102EC000B1E80810A0E8081044BF51F8043B40F8EE
:102ED000043BD20724BF31F8022B20F8022B44BF59
:102EE0000B7803707047121F17D35B0009D151F89C
:102EF000043B20F8023B1B0C121F20F8023BF6D2C9
:102F00000BE051F8043B00F8013B1B0A20F8023BA0
:102F10001B0C121F00F8013BF3D238BF121D521ECA
:102F200024BF11F8013B00F8013BF8D870470000BE
:102F300010B5144600F002F8226010BDC1F30A5328
:102F400043B14A0012F5001F28D2A3F2FE32A1EBD2
:102F50000251704750EA410C20D001F0004C31EA98
:102F60000C01B1FA81F204BFB0FA80F3D2180B3A27
:102F7000B2F120032CBF00FA03F1914041EA0C01A9
:102F80003EBFC2F1200C20FA0CF31943904052428C
:102F900040F2FD33D21A01EB035170470022704713
:102FA000F0B540F2FF7581EA030C0CF0004C15EA15
:102FB00011541DBF15EA1357AC42AF42E5E0BC41C6
:102FC000C1F31301C3F31303801A994143F480132F
:102FD00004D2641E4000494180185941C90241EAA7
:102FE0005051B1FBF3F603FB1611A2FB0675D7EBAC
:102FF000C020A94102D2761E80185941C90241EA77
:103000005051B1FBF3FE03FB1E11A2FB0E75D7EB73
:10301000C020A94103D2AEF1010E801859418902A6
:1030200041EA9051760546EA8E2EB1FBF3F603FB9A
:103030001611A2FB0675D7EB8020A94102D2761E9D
:1030400080185941C90241EA50514EEA060EB1FBBF
:10305000F3F603FB1611A2FB0675D7EBC020A941BE
:1030600002D2761E80185941C90241EA5051B1FB83
:10307000F3F703FB1711A2FB0735D3EBC020A941DF
:1030800067F100070CBF004247F0010766F3D52740
:103090004FEA1E31B80814F5806412DDBD0775F1E2
:1030A000004250EB0E5051EB045111F5801F5CBFF4
:1030B00041EA0C01F0BD4CF07F6141F0E04100209D
:1030C000F0BDBD076D0840EA0E5041F48011D4F107
:1030D0000104B4F120060ADAC4F120060200E0403F
:1030E00001FA06F3E1401843B24015430EE0342CD8
:1030F00013DCC6F1200445EA40056D0820FA06F20B
:10310000154321FA06F0A1400D43002175F100425C
:1031100050F1000051EB0C01F0BD00205FEA0C0102
:10312000F0BDCFB992185B41B3FA83F704BFB2FA8E
:1031300082F6BF190B3FB7F120062FBF02FA06F344
:10314000BB40C7F1200622FA06F638BF3343BA4027
:103150001CB1E419641E33E77F4231F00041B1FA3B
:1031600081F404BFB0FA80F6A4190B3CB4F1200638
:103170002FBF00FA06F1A140C4F1200620FA06F69E
:1031800038BF3143A0403C1B1AE7AC421ABF05EAE6
:103190001357AF4212E050EA41061CBF52EA430601
:1031A000BFE750EA4107304661461CBF41EA05517E
:1031B000F0BD52EA430C08BFC143F0BD00204FF4FC
:1031C000001616EB410F98BF16EB430F08BF16EB26
:1031D000410F24BFC14305E016EB430F0CBF61460E
:1031E0004CEA0551F0BD0000400D491840EA81202D
:1031F0000CD2490DA1F58061491C40F0004005DB6F
:10320000D1F11F0154BFC840C0177047002070475C
:10321000014648B1B0FA80F18840C91CC1F584610B
:10322000090501EBD02140057047000070B44FF054
:10323000004591EA030F40F175806B40841A71EBF1
:10324000030603D2001BB141121973414FF4001C55
:103250001CEB410F34BF7CEB430442E00C0DA4EBAC
:103260001356352E4FDC45EAC323DB0A45EAC1215C
:10327000C912B6F120050DDD63FA05F6EB4086EACA
:103280000305124218BF45F00105C01851F10001B5
:103290000CD213E062FA06F5F2405540F3415A4071
:1032A000B340F3405A408018594107D349085FEAB8
:1032B00030005FEA350528BF45F0010501F58011B2
:1032C000420875F1004250F1000041EB04514E00FC
:1032D00016F5001F70BC38BF70470020090D0905A6
:1032E00070471CEB410F10D252EA43060BD0BCEBE7
:1032F000410F05D80C0DAB43661E342EB6DD02E03F
:10330000AB438018594170BC704770BC70470000D7
:10331000004870471C0CFF1F012000F0B9B80000E6
:1033200070470000841A71EB030604D26E40001B44
:10333000B141121973414FF4001C1CEB410F34BF13
:103340007CEB430683E00C0DA4EB1356362E00F302
:103350007C80012E45EAC32341DC43EA525312BF6D
:10336000D20292025B08240545EAC12141EA50518C
:10337000D2EBC020994125D407D1B0FA80F610FADB
:1033800006F162D00020203608E0B1FA81F6B140A3
:10339000C6F1200220FA02F21143B0404FEAF47461
:1033A000B4EB465434F001064FEA74040AD8D6F55B
:1033B0000016760D04F00044F04061FA06F2504029
:1033C000F1404840C00A40EA415021F0004128BF86
:1033D0005FEA500550F1000044EBD12135E0DB0AF3
:1033E00045EAC121C90AB6F120050EDD42EA0242D2
:1033F000120CC5F1200603FA06F6EB4042EA060578
:103400006D42984161F100010DE062FA06F5F2406B
:10341000554063FA06FC82EA0C02F3405A406D42C2
:10342000904161EB030111F4801F05D1641E620518
:1034300002D06D004041494121F48011430875F1EB
:10344000004350F1000041EB045170BC70471CEB8D
:10345000410F15D223F0004352EA43060BD04FEA46
:103460004C0CBCEB410F04D80C0D661E342EB7DD9E
:10347000EBE7801A994150EA410608BF0021E4E7D2
:1034800008BF1CEB430F28BF6FF00001DDE7000011
:103490002021090326311820ABBEF9E70000000007
:1034A000000000000000000000000000000000001C
:1034B000000000000000000000004E6F6E4D6173C0
:1034C0006B61626C65000000004861726446617562
:1034D0006C740000000000004D656D4D616E616709
:1034E000656D656E7400004275734661756C74009D
:1034F00000000000000055736167654661756C74DB
:1035000000000000000000000000000000000000BB
:1035100000000000000000000000000000000000AB
:10352000000000000000000000000000000000009B
:10353000000000000000000000000000000000008B
:1035400000535643616C6C00000000000000000056
:1035500044656275674D6F6E69746F72000000009C
:1035600000000000000000000000000000005065A6
:103570006E64535600000000000000000053797391
:103580005469636B0000000000000000444D4130AE
:103590000000000000000000000000444D41310028
:1035A00000000000000000000000444D4132000017
:1035B000000000000000000000444D413300000006
:1035C0000000000000000000444D413400000000F5
:1035D00000000000000000444D41350000000000E4
:1035E000000000000000444D4136000000000000D3
:1035F0000000000000444D413700000000000000C2
:1036000000000000444D41380000000000000000B0
:10361000000000444D41390000000000000000009F
:103620000000444D41313000000000000000000067
:1036300000444D4131310000000000000000000056
:10364000444D413132000000000000000000004401
:103650004D41313300000000000000000000444DE7
:1036600041313400000000000000000000444D41E2
:10367000313500000000000000000000444D415FB3
:103680004572726F720000000000004D434D000053
:10369000000000000000000000004654464C0000FE
:1036A000000000000000000000526561645F436F8D
:1036B0006C6C6973696F6E004C56445F4C565700D2
:1036C000000000000000004C4C570000000000000B
:1036D0000000000000005761746368646F670000B9
:1036E0000000000000524E470000000000000000F3
:1036F00000000000493243300000000000000000DC
:1037000000000049324331000000000000000000CA
:10371000000053504930000000000000000000008D
:10372000005350493100000000000000000000007C
:103730005350493200000000000000000000004328
:10374000414E305F4F525F4D425F627566004341AC
:103750004E305F4275735F4F666600000043414E16
:10376000305F4572726F72000000000043414E30BE
:103770005F54785F5761726E696E6743414E305F88
:1037800052785F5761726E696E6743414E305F5782
:10379000616B655F557000000052657365727665F8
:1037A000643531000000000052657365727665640F
:1037B0003532000000000043414E315F4F525F4DF3
:1037C000425F6275660043414E315F4275735F4FE1
:1037D000666600000043414E315F4572726F7200B1
:1037E0000000000043414E315F54785F5761726EB4
:1037F000696E6743414E315F52785F5761726E69FF
:103800006E6743414E315F57616B655F55700000D5
:1038100000526573657276656435390000000000FA
:10382000526573657276656436300000000000559D
:10383000415254305F52585F5458000000005541C7
:103840005254305F45525200000000000055415272
:1038500054315F52585F5458000000005541525493
:10386000315F455252000000000000554152543271
:103870005F52585F54580000000055415254325F67
:1038800045525200000000000055415254335F522F
:10389000585F54580000000055415254335F455260
:1038A0005200000000000055415254345F52585FEE
:1038B00054580000000055415254345F45525200A4
:1038C000000000000055415254355F52585F545873
:1038D0000000000055415254355F4552520000002F
:1038E00000000041444330000000000000000000E0
:1038F00000004144433100000000000000000000CF
:1039000000434D50300000000000000000000000A7
:10391000434D503100000000000000000000004353
:103920004D5032000000000000000000000046542E
:103930004D30000000000000000000000046544D23
:1039400031000000000000000000000046544D322D
:103950000000000000000000000000434D54000083
:10396000000000000000000000005254430000006E
:10397000000000000000000000526573657276656B
:10398000643833000000000050495430000000004B
:103990000000000000000050495431000000000009
:1039A00000000000000050495432000000000000F8
:1039B00000000000005049543300000000000000E7
:1039C00000000000504442300000000000000000F1
:1039D00000000055534230000000000000000000CD
:1039E0000000555342444344000000000000000022
:1039F00000454E45545F313538385F54696D657206
:103A0000454E45545F5472616E736D697400004594
:103A10004E45545F52656365697665000000454E0A
:103A200045545F4572726F720000000000493253C6
:103A30003000000000000000000000005344484334
:103A4000000000000000000000000044414330007E
:103A5000000000000000000000004441433100006D
:103A60000000000000000000005453493000000036
:103A700000000000000000004D434700000000006F
:103A8000000000000000004C5054696D6572000099
:103A90000000000000005265736572766564313085
:103AA0003200000000504F5254410000000000005E
:103AB00000000000504F525442000000000000007F
:103AC000000000504F52544300000000000000006E
:103AD0000000504F5254440000000000000000005D
:103AE00000504F525445000000000000000000004C
:103AF000526573657276656431303800000000529B
:103B00006573657276656431303900000000526576
:103B10007365727665643131300000000052657360
:103B2000657276656431313100000000526573655D
:103B3000727665643131320000000052657365723F
:103B4000766564313133000000005265736572762A
:103B5000656431313400000000526573657276652A
:103B6000643131350000000052657365727665641A
:103B7000313136000000005265736572766564313C
:103B8000313700000000526573657276656431312B
:103B90003800000000526573657276656431313912
:103BA00000000000008003400090034000800B40B4
:103BB00000F00F4040F00F4080F00F40C0F00F4089
:103BC00000F10F40F0000A1D30001800320018010B
:103BD000600018186400181A6E00181F7800131877
:103BE0007D00131A8200131C8C000E1296000E1515
:103BF000A0000E18AA000E1BB4000E1EC8000C1C5C
:103C0000E1000B1EFA000A1F0001090800900440A1
:103C100000A0044000B0044000C0044000D00440B4
:103C200000A0064000B0064000C0064000D006409C
:103C300000A00E4000B00E406A6E6B6C676D4E4F78
:103C4000343536370DC1110009030CD01240173F2F
:103C5000185019031A783200A00A63E0ACFF650C13
:103C60006600670029282C3C2A007E0C7F16802ADB
:103C7000814E8261836F847B8586868E879788A438
:103C800089AF8AC58BD78CE88D204A004913470835
:103C90004B144C17460522992303A6049B009C57FE
:103CA000AB069E119F0200008C5800008C5800004B
:103CB0008C5800008C5800008C5800008C58000074
:103CC0008C580000FFFFFFFFFFFFFFFF8E58000032
:103CD0008C5800008C580000FFFFFFFFFFFF000022
:103CE00002040101A419FF1FF419FF1FA419FF1FEB
:103CF000A419FF1F00000000A419FF1F000000000E
:103D0000980CFF1F840CFF1F000000000000000043
:103D100000000000000000000000000000000000A3
:103D20000000000000000000800080000131000061
:103D30007CB5DFF8A00302218172022180F82310F4
:103D4000052180F83C100A2180F855100F2180F8D9
:103D50006E10DFF884030468DFF88003056800F064
:103D6000CDF9FDF765FCADF80200FDF764FCADF898
:103D70000000DFF86C63300000F022FB5FF4E131FB
:103D80000420FDF781FE40F2663141F2883000F0F8
:103D900055F84FF49671C82000F05AF80FF2390127
:103DA000672000F014FC0FF25501102000F00FFC0A
:103DB00000F063FB300000F00AF900F054F82B002B
:103DC00032000099200000F018FA4FF4166130001C
:103DD00000F018F8ECE7000038B5DFF808130868C1
:103DE0000028FAD00D685FF0FF3008601D2428001D
:103DF000E040C00701D500F017FB31BD80B500F0F1
:103E000033FB01BD38B504000D00B7480088ADF89C
:103E10000200B6480088ADF8000002220DF1020150
:103E20000420FDF739FF2A0021000420FDF734FFAC
:103E3000022269460420FDF72FFF31BD38B504008A
:103E40000D002B0022000421002000F061FC31BD98
:103E500038B504000D002B0022000021022000F0E4
:103E600057FC31BD7047F8B54FF49671A04AA14890
:103E7000037D447DE318022493FBF4F3D3F1500354
:103E8000937290F8463090F84740E318022493FB71
:103E9000F4F3D3F1500382F8233090F8783090F89F
:103EA0007940E318022493FBF4F3D3F1500382F832
:103EB0003C3090F8AA3090F8AB40E318022493FB12
:103EC000F4F3D3F1500382F8553090F8DC3090F8D9
:103ED000DD00C018022390FBF3F0D0F1500082F80F
:103EE0006E00854B7B4C92F90A50A67A92F92370AA
:103EF00094F82300474306FB057592F93C6094F85B
:103F00003C0000FB065592F9556094F8550000FB03
:103F1000065592F96E2094F86E0000FB02551D8044
:103F2000B3F90000052290FBF2F4D4F5967440F248
:103F30001915200080B2A8420ADB200080B2B0F53B
:103F4000A57F05DA40F2EE2141F28830FFF776FFD7
:103F5000200080B2E62809DB200080B2A84205DA02
:103F60004FF4487141F28830FFF768FF200080B2BB
:103F7000B0F5A57F0BDB200080B240F27D118842B6
:103F800005DA4FF4487141F28830FFF757FF2000FF
:103F900080B2C82807DAC820040040F2A23141F2FA
:103FA0008830FFF74BFF200080B240F29111884229
:103FB00008DB4FF4C870040040F2A23141F28830AF
:103FC000FFF73CFF200080B2FFF74CFFF1BDF0B4DB
:103FD0000100782425002800C0B2002839D0002034
:103FE00002001000C0B20A2831DA14262F00FFB2F6
:103FF00077430B3F1000C0B23F1AC85D00281CD0A9
:10400000002003002F00FFB277430B3F1000C0B227
:104010003F1AC85D01279F4038420CD0D2B2D00071
:10402000D0F15000C01A334E2F00FFB206EB470606
:1040300006F8020C0BE05B1CE4E700202D4E2F007D
:10404000FFB206EB470606F8020C521CC9E76D1ECC
:10405000C1E726003000C0B2002838D0002002009E
:104060001000C0B20A2830DA14253000C0B268430C
:1040700050FA82F0084410F80A0C00281BD00020E7
:1040800003003000C0B2684350FA82F0084410F8D0
:104090000A0C80271F4138420BD0D2B213EBC2006A
:1040A0005130144D3700FFB205EB470505F8010C00
:1040B0000BE05B1CE5E7A0200E4D3700FFB205EBDF
:1040C000470505F8010C521CCAE7761EC2E7F0BC92
:1040D000704700001819FF1F805800008458000026
:1040E000500EFF1FA0900440E22900005A2A000051
:1040F000A018FF1FB017FF1FF419FF1F1CB5DFF832
:104100007C020468FCF788F9FDF795FAADF8000029
:10411000FDF78EFAADF802004FF4784200992000C6
:1041200000F001F813BDF2B504001500009920005D
:10413000FDF7B1F9BDF80010BDF802004143DFF80A
:10414000400201220260DFF83C2200231360DFF806
:10415000383200261E60DFF834622C273770DFF813
:1041600030725FF0000CC7F800C05FF0010CC7F8B8
:1041700000C05FF0010CC3F800C05FF0000C8C457C
:104180003AD25FF0010EC0F800E05FF0010EC2F815
:1041900000E05FF0000EC3F800E0AE461FFA8EFEAE
:1041A0005FEA1E2E86F800E05FF0000EC7F800E020
:1041B0005FF0010EC7F800E05FF0010EC3F800E009
:1041C0005FF0010EC0F800E05FF0010EC2F800E001
:1041D0005FF0000EC3F800E035705FF0000EC7F826
:1041E00000E05FF0010EC7F800E05FF0010EC3F8D9
:1041F00000E01CF1010CC2E7F1BD2DE9FA4F83B0DC
:1042000004001500029503992000FDF744F95C496C
:10421000012008605B4A002010605B4B00201860A2
:10422000DFF868E12C208EF80000DFF864910020B0
:10423000C9F800000120C9F80000012018605FF0F3
:10424000000A5046BDF80EC080B2604580F09180F3
:10425000D4461FFA8CFCBDF8120000FB0CFCBDF824
:104260000E009CFBF0F0ADF80000BDF800B0BDF80A
:10427000100000FB0BFBCDF804B000200700380055
:10428000BDF80CC080B2604570D2BC461FFA8CFCF1
:10429000BDF8100000FB0CFCBDF80C009CFBF0F01E
:1042A0008046019810FA88F006000298B4465FEA4A
:1042B000DC0C10F80CB05FF0010C16F00700D0F128
:1042C00007001CFA00FC1BEA0C0F2BD10120086030
:1042D0000120106000201860FF208EF800005FF0C1
:1042E000000CC9F800C05FF0010CC9F800C05FF015
:1042F000010CC3F800C05FF0010CC1F800C05FF012
:10430000010CC2F800C05FF0000CC3F800C08EF8CA
:1043100000000020C9F800000120C9F800000120B9
:10432000186021E001200860012010600020186062
:1043300000208EF800000020C9F800000120C9F814
:10434000000001201860012008600120106000209A
:10435000186000208EF800000020C9F8000001203D
:10436000C9F80000012018607F1C88E71AF1010AD3
:1043700067E705B0BDE8F08F000000008858000036
:104380002810FE433010FE432C10FE4380F00F40F7
:104390002410FE43012210F01F018A4070490300DF
:1043A0005BB25B0941F823207047012210F01F0126
:1043B0008A406C4903005BB25B0941F823207047D7
:1043C00010B504006848046000F072F80028FBD0C3
:1043D00000F002F8002010BDE0B5012002904FF47B
:1043E00016600190002000901B235F4802685F491F
:1043F000002000F081FA5E48016849084900016028
:104400005720FFF7D2FF5B48016851F001010160BE
:104410000020FFF7BFFF58491B20FDF7BDF95749A2
:104420001D20FDF7B9F907BD10B5554C94F90000F2
:10443000042813D1032020705720FFF7B6FF5FF048
:1044400000605049086048480068401E4E490860B6
:104450004748016851F00101016004E05720FFF76F
:10446000A4FF0220207010BD01204549087041487A
:10447000016851F001010160704770B5404C0420A3
:104480002070404D5FF0FF362E605720FFF782FF0F
:1044900094F9000001280AD094F900000228F7D10D
:1044A000042020702E605720FFF774FFF0E770BDE6
:1044B0007CB5002600208DF8000000F020FB802154
:1044C000122000F01BFC002804D13048FDF7C8FA88
:1044D000002043E03220FDF7E3F90B22012168467A
:1044E00000F045FC002804D12948FDF7B9FA002066
:1044F00034E09DF800102748FDF7B2FA264C2178E9
:104500002648FDF7ADFA9DF80000212825D10025A9
:104510002800217880B289B2884219D2204E280022
:1045200080B206EB40004178280080B216F81000F7
:1045300080B200F0E3FB002808D1280080B216F812
:1045400010101848FDF78CFA002007E06D1CDFE71B
:104550001548FDF785FA012000E0002076BD000037
:1045600000E100E080E100E09C19FF1F50F00F40E7
:104570000C80004024800040030102001301090068
:10458000A00CFF1FA090044010900040F8570000BE
:10459000605800002C570000A10CFF1FA45700001A
:1045A000B80BFF1F105800005057000010B5040052
:1045B0004FF4007094FBF0F100FB1140002803D091
:1045C0001E210B48FDF78CF90A48046010BD70B538
:1045D00004000D00084E07480068B04203D03021A7
:1045E0000348FDF77DF9200040B246F8205070BD29
:1045F0006856000008ED00E00000FF1F38B5040019
:104600000D00200040B2002803D0022864D048D317
:104610007DE0DFF87402016851F0807101602800CC
:1046200040B200280BD0022815D00ED304281ED08B
:1046300017D3062827D020D307282AD02FE04FF4FD
:1046400080614120FDF7A8F82AE04FF44071042072
:10465000FDF7A2F824E04FF440710520FDF79CF827
:104660001EE04FF440710620FDF796F818E04FF475
:1046700040710720FDF790F812E04FF4806165204B
:10468000FDF78AF80CE04FF480616620FDF784F8AE
:1046900006E04FF480616720FDF77EF800E036E029
:1046A00035E0DFF8E401016851F000710160280095
:1046B00040B2002802D0012806D00BE04FF4407130
:1046C0000C20FDF769F806E04FF440710D20FDF76E
:1046D00063F800E01BE01AE0DFF8B001016851F078
:1046E00080710160280040B2002802D0012806D065
:1046F0000BE04FF440710A20FDF74EF806E04FF44E
:1047000040710B20FDF748F800E000E0FFE731BD05
:104710002DE9F84F04000D0016001F00200040B2E4
:10472000002810D0200040B2012803D0200040B261
:10473000022803D1280040B2022804DBFC21DFF864
:104740005001FDF7CDF8290049B2200040B2FFF733
:1047500055FFDFF84001D0F800904FF47A7000FB6D
:1047600009F94846000CB0FBF6FA5FF0000B504622
:1047700080B250FA0BF0012802DB1BF1010BF6E7C7
:104780005846C0B2082805DB40F21711DFF80001D7
:10479000FDF7A6F8484630FA0BF0B0FBF6F0210022
:1047A00049B2002903D0022917D00BD320E0010021
:1047B00089B2491C01FB07F14FF47A72B1FBF2F1A7
:1047C000884615E0010089B2491C01FB07F14FF44E
:1047D0007A72B1FBF2F188460AE0010089B2491C05
:1047E00001FB07F14FF47A72B1FBF2F18846FFE763
:1047F000DFF8A410220052B251F822202B005BB245
:1048000002EBC30223005BB251F82330AC464FFAEF
:104810008CFC03EBCC03DB6833F00403D360220091
:1048200052B251F822202B005BB202EBC3022823C4
:10483000D3605A46D2B212F0070252F008022300A7
:104840005BB251F823301A60020092B223005BB2CF
:1048500051F823309A60002223005BB251F82330D4
:10486000DA64220052B251F822202B005BB202EB34
:10487000C30243469BB21361002223005BB251F88E
:1048800023104A60BDE8F18F3C8004403080044032
:10489000A85500009819FF1F180BFF1F2DE9F843BA
:1048A00004000D002000800910F00700C0B246018E
:1048B0002000103810F03F00C0B2C70017EB060808
:1048C000EDB218EBC500B0F1010948464146C0B24F
:1048D000C9B288420ED3002200214046C0B2FCF784
:1048E000BFFE4FF481714046C0B2FCF755FF18F18E
:1048F0000108EAE7BDE8F1832DE9F84F04000D0057
:1049000016001F009DF92880DDF82C90DDF830A0FE
:10491000404640B2002802D15FF0010B0FE0404654
:1049200040B2012802D15FF0020B08E0404640B2DD
:10493000022802D15FF0040B01E05FF0100B40464B
:1049400040B2002805D15A48854202D35948A842AE
:104950001FD2404640B2012809D15548854206D3AE
:104960005548A84203D315F00300032811D140464F
:1049700040B2022809D14E48854206D34F48A8428A
:1049800003D315F00300002803D061214C48FCF745
:10499000A7FFB9F5004F03D363214948FCF7A0FFF7
:1049A0004848016851F0020101604748016851F030
:1049B000020101604548210049B2490145502100EA
:1049C00049B2490101440E610021220052B2520154
:1049D000024491805946C9B2220052B252010244A7
:1049E0009182414649B2090211F4E061424652B255
:1049F00012F007021143220052B252010244D18048
:104A000049464904490C220052B252010244D18263
:104A100049464904490C220052B252010244D18352
:104A20002B490A6832F080020A605946C9B2220056
:104A300052B25201024491600021220052B252014E
:104A40000244D1605FEACA7102D4D9F1000100E0EA
:104A50000021220052B25201024491614CF20A013B
:104A6000220052B25201104481833800C0B2400982
:104A7000313050F080001749220052B28854164954
:104A80003800C0B2FCF788FE5946C9B22800FFF7CB
:104A900005FF124901220B6812FA04F083430B60F0
:104AA0000F480168A2400A430260BDE8F18F000090
:104AB00010F00F4013F10F4012F10F4010F10F40B2
:104AC00068550000408004403C8004400090004055
:104AD0000080004000100240000101000C800040F6
:104AE0002480004001B4BDF80000002805D0BDF8C6
:104AF0000000401EADF80000F5E701B0704780B53A
:104B0000012201211A20FCF7ABFD0122012119200D
:104B1000FCF7A6FD23211A20FCF762FE23211920B1
:104B2000FCF75EFE01BDF8B5704C01202060704EB0
:104B3000012030604FF4C870FFF7D4FF6D4D0020A6
:104B400028606D4F3868002803D1012028600020BC
:104B500011E001202860002020604FF4C870FFF7AA
:104B6000C1FF002030603868002803D00120286091
:104B7000002000E00120F2BD38B55D4C002020602F
:104B80005A4D002028604FF4C870FFF7ABFF01209A
:104B900020604FF4C870FFF7A5FF012028604FF494
:104BA000C870FFF79FFF31BD10B5514C0020206049
:104BB0004FF4C870FFF796FF00204C4908604FF48F
:104BC000C870FFF78FFF012020604FF4C870FFF717
:104BD00089FF002020604FF4C870FFF783FF10BDED
:104BE00010B5434C002020604FF4C870FFF77AFFE7
:104BF00001203E4908604FF4C870FFF773FF0120A1
:104C000020604FF4C870FFF76DFF002020604FF464
:104C1000C870FFF767FF10BD38B5354C0020206025
:104C2000344D002028604FF4C870FFF75BFF01206F
:104C300020604FF4C870FFF755FF2F480068002828
:104C400005D00120286000202060002004E0012021
:104C5000286000202060012032BD70B504000825C6
:104C60002800451EC0B2002817D0200603D5012019
:104C70001E49086002E000201C49086064004FF4EF
:104C8000C870FFF72FFF1A4E012030604FF4C87034
:104C9000FFF728FF00203060E2E770BDF8B5082577
:104CA0000026144C002020602800451EC0B20028B9
:104CB00014D076000E4F002038604FF4C870FFF714
:104CC00011FF012038604FF4C870FFF70BFF0A484E
:104CD00000680028E8D056F00106E5E701202060D2
:104CE000002003490860F6B23000F2BD6400FE43C4
:104CF0006800FE43E402FE436402FE4370B5040014
:104D00000D0000262900C9B2200080B200F00BF887
:104D1000002806D1761C3000C0B21428F2D1002041
:104D200000E0012070BD38B504000D00FFF7FBFE68
:104D3000002801D1002019E04220FFF78EFFFFF785
:104D40006BFF002803D1FFF717FF00200EE02000C3
:104D5000C0B2FFF782FFFFF75FFF2800C0B2FFF786
:104D60007CFFFFF759FFFFF707FF012032BDF8B5C1
:104D700004000D00160000273200D2B2290089B2CB
:104D8000200000F00BF8002806D17F1C3800C0B2CC
:104D90001E28F1D1002000E00120F2BD70B5040012
:104DA0000D001600FFF7BFFE002801D1002039E0FA
:104DB0004220FFF752FFFFF72FFF002803D1FFF734
:104DC000DBFE00202EE03000C0B2FFF746FFFFF709
:104DD00023FFFFF7D1FEFFF7A6FE002801D1002038
:104DE00020E04320FFF739FFFFF716FF002803D12B
:104DF000FFF7C2FE002015E0280080B200280ED088
:104E0000FFF74CFF2070280080B2012802D1FFF785
:104E1000E7FE01E0FFF7C8FE641C6D1EECE7FFF73C
:104E2000ABFE012070BD0000DFF800F0090EFF1F8F
:104E300010B4DFF89413020052B231F822100200CD
:104E400052B2012AC0F27281020052B2112A80F2DB
:104E50006D81DFF87823002313700B009BB25B2B6E
:104E600002DA002353707DE00B009BB2B52B02DA0F
:104E70000123537076E00B009BB240F20F14A34263
:104E800002DA022353706DE00B009BB240F269140A
:104E9000A34202DA0323537064E00B009BB240F29A
:104EA000C314A34202DA042353705BE00B009BB2ED
:104EB00040F21D24A34202DA0523537052E00B0096
:104EC0009BB240F27724A34202DA0623537049E0F2
:104ED0000B009BB240F2D124A34202DA07235370A5
:104EE00040E00B009BB240F22B34A34202DA0823CD
:104EF000537037E00B009BB240F28534A34202DAD4
:104F0000092353702EE00B009BB240F2DF34A34222
:104F100002DA0A23537025E00B009BB240F23944B9
:104F2000A34202DA0B2353701CE00B009BB240F249
:104F30009344A34202DA0C23537013E00B009BB29C
:104F400040F2ED44A34202DA0D2353700AE00B0055
:104F50009BB240F24754A34202DA0E23537001E0A1
:104F60000F2353700B009BB21A2B02DA00239370AD
:104F70006AE00B009BB2332B02DA0123937063E0EB
:104F80000B009BB24C2B02DA022393705CE00B0007
:104F90009BB2652B02DA0323937055E00B009BB2A2
:104FA0007E2B02DA042393704EE00B009BB2972B0A
:104FB00002DA0523937047E00B009BB2B02B02DAB4
:104FC0000623937040E00B009BB2C92B02DA072343
:104FD000937039E00B009BB2E22B02DA0823937046
:104FE00032E00B009BB2FB2B02DA092393702BE01B
:104FF0000B009BB2B3F58A7F02DA0A23937023E099
:105000000B009BB240F22D14A34202DA0B239370E3
:105010001AE00B009BB2B3F5A37F02DA0C23937066
:1050200012E00B009BB240F25F14A34202DA0D23A0
:10503000937009E00B009BB2B3F5BC7F02DA0E233C
:10504000937001E00F2393700B009BB21A2B02DACE
:105050000023D3706AE00B009BB2332B02DA0123EA
:10506000D37063E00B009BB24C2B02DA0223D370A7
:105070005CE00B009BB2652B02DA0323D37055E092
:105080000B009BB27E2B02DA0423D3704EE00B00A0
:105090009BB2972B02DA0523D37047E00B009BB23B
:1050A000B02B02DA0623D37040E00B009BB2C92B71
:1050B00002DA0723D37039E00B009BB2E22B02DA4D
:1050C0000823D37032E00B009BB2FB2B02DA0923DA
:1050D000D3702BE00B009BB2B3F58A7F02DA0A2370
:1050E000D37023E00B009BB240F22D14A34202DAEE
:1050F0000B23D3701AE00B009BB2B3F5A37F02DA47
:105100000C23D37012E00B009BB240F25F14A34259
:1051100002DA0D23D37009E00B009BB2B3F5BC7F1C
:1051200002DA0E23D37001E00F23D37010BC704756
:1051300070B50400200040B2FFF77AFE24480178E1
:1051400011F0FD010170017851F010010170214D45
:10515000B8202870204E3078C006FBD43078C0F3D9
:1051600081000228FAD11948C37882784178007802
:10517000FFF75AFE1448210049B200EB81018978FB
:1051800011F01F01154A1170210049B200EB810195
:10519000C97811F01F0151F04001114A11703178A6
:1051A0008906FCD531784906FCD5297811F03F01F4
:1051B00029703178C1F381010329FAD164B230F842
:1051C0002400C0B270BD0000380BFF1F7C0BFF1F16
:1051D00001400640004006400640064004400640AC
:1051E00005400640DFF800F0E11800004A48F021D1
:1051F000017001780906FCD5007810F0710F01D01C
:10520000002000E0012070474448016851F400216B
:1052100001604348016851F4002101603E48017873
:105220000906FBD5F021017070471CB50400210070
:1052300089B24FF400604143009109203949087058
:105240009DF80200384908709DF801003749087040
:105250009DF8000036490870FFF7C8FF002801D10B
:1052600000200DE0200080B2002808D17FF001026C
:1052700040F20C41200080B200F003F800E0012071
:1052800016BD7CB506000C001500310089B24FF444
:105290000060414311FA84F00190200080B20421A3
:1052A00090FBF1F201FB1200002803D0E921214814
:1052B000FFF798FF200080B240F60101884203DB2F
:1052C000EB211C48FFF78EFF9DF806001649087079
:1052D0009DF80500154908709DF8040014490870F0
:1052E00000959DF80300144908709DF802001349C9
:1052F00008709DF80100124908709DF800001149DE
:105300000870062007490870FFF770FF002801D1D8
:10531000002000E0012076BD0000024004F00140C2
:1053200008F001400700024006000240050002406C
:1053300004000240245500000B0002400A00024015
:105340000900024008000240F0B40F4E346835688E
:1053500055F47F0535600D0615F0706555EA00754A
:10536000170517F470073D431F0417F470273D43DA
:10537000064F3D6000252F00FFB29F4201D26D1CF9
:10538000F9E73460F0BC704700F00140448004400D
:1053900080B500F083F800F023F800F005F8FCF782
:1053A000BCFAFEF7C5FCFEE710B52E4C0D20FFF74A
:1053B000BFFE20602C4922684FF47A7042430A6095
:1053C00008682A490968C1F30361491CB0FBF1F080
:1053D000274908605FF4E1310420FCF755FB10BD5C
:1053E0002DE9F0412349244888420AD000221400C4
:1053F000B4F5826F05D251F8242040F82420641CB3
:10540000F6E7FFF7D3F81D4B1D4A1E498E1A3000F0
:10541000461E002804D010781870521C5B1CF6E75A
:10542000194D1A4C671B3800471E002803D0002076
:1054300028706D1CF7E7DFF858C0DFF858E0DFF898
:105440005880B8EB0E063000461E002808D09EF8A3
:1054500000008CF800001EF1010E1CF1010CF2E7B7
:10546000BDE8F0819419FF1F9019FF1F448004408C
:105470009819FF1F000000000000FF1F1004FF1F0D
:105480009C340000303D0000500EFF1FF819FF1F34
:10549000A40CFF1FE45100009053000080B500F001
:1054A00007F80C490A884FF6FE7002400A8001BDD9
:1054B000EFF3118072B608494CF220520A804DF683
:1054C00028120A800100C9B2002900D162B67047D3
:1054D00000000000002005400E200540463A5C43D5
:1054E00061725C46534B455C4D4B3630E7A88BE50B
:1054F000BA8F3020777269745C4C43445FE69184C4
:10550000E5838FE5A4B45C426F6172645C7372637F
:105510005C5643414E5F4C43445F535437373335F9
:10552000532E6300463A5C4361725C46534B455CC4
:105530004D4B3630E7A88BE5BA8F3020777269740F
:105540005C4C43445FE69184E5838FE5A4B45C43FF
:105550006869705C7372635C4D4B36305F666C617A
:1055600073682E6300000000463A5C4361725C463B
:10557000534B455C4D4B3630E7A88BE5BA8F302056
:10558000777269745C4C43445FE69184E5838FE5F0
:10559000A4B45C436869705C7372635C4D4B3630D5
:1055A0005F646D612E630000463A5C4361725C4645
:1055B000534B455C4D4B3630E7A88BE5BA8F302016
:1055C000777269745C4C43445FE69184E5838FE5B0
:1055D000A4B45C436869705C7372635C4D4B363095
:1055E0005F66746D2E630000463A5C4361725C46F0
:1055F000534B455C4D4B3630E7A88BE5BA8F3020D6
:10560000777269745C4C43445FE69184E5838FE56F
:10561000A4B45C436869705C7372635C4D4B363054
:105620005F6770696F2E6300463A5C4361725C4647
:10563000534B455C4D4B3630E7A88BE5BA8F302095
:10564000777269745C4C43445FE69184E5838FE52F
:10565000A4B45C436869705C7372635C4D4B363014
:105660005F756172742E6300463A5C4361725C46FA
:10567000534B455C4D4B3630E7A88BE5BA8F302055
:10568000777269745C4C43445FE69184E5838FE5EF
:10569000A4B45C436869705C7372635C6D69736326
:1056A0002E6300000A2A2A2A2A64656661756C74D2
:1056B0005F69737220656E7465726564206F6E2019
:1056C000766563746F722025642A2A2A2A2A0A0AB8
:1056D000257320496E746572727570740000000045
:1056E00010B5074979441831064C7C44163404E05F
:1056F0000A68081D114488470146A142F8D110BD2F
:105700007400000080000000417373657274696F5B
:105710006E206661696C656420696E202573206166
:1057200074206C696E652025640A00000A47657460
:105730002049442073756363657373A3AC53454E6E
:10574000534F522049442069732030782578000057
:105750000A4F563737323520526567697374657260
:1057600020436F6E666967205375636365737321A9
:10577000000000001FD2FFFFA80B0000500EFF1F0B
:10578000000000000ABDF8D0D0BDE2CBF8B2D9D7F6
:10579000F7A3ACC7EBD6D8D0C2CBA2C8EBB9CCBC70
:1057A000FE0000000A436F6E6669672052656769F4
:1057B00073746572204E756D626572206973202561
:1057C0006420000000F00DF8002801D0FFF788FFEA
:1057D000AFF300800020AFF30080FEF7A9FA00F0DD
:1057E00002F80120704700F001B800000746384673
:1057F000FDF74EFEFBE700000ABEAFB8E63A5343A2
:105800004342D0B4CAFDBEDDB4EDCEF300000000CB
:105810000ABEAFB8E63AD0B4BCC4B4E6C6F7307836
:105820002578CAA7B0DC000038B504460D462846E6
:1058300000F006F8A84218BF0024204632BD000040
:105840000149FCF760B800BF540CFF1F0ABDF8C83F
:10585000EBCBC0D1ADBBB7B5C8B4FDA3A100000070
:105860000ABEAFB8E63AB6C1C8A14944CAA7B0DC7F
:1058700000000000AFF30080AFF30080FFF7A2FF4D
:1058800000000000A00078000000000000002E00D2
:04000005000058752A
:00000001FF
